{
  "contractName": "Drug",
  "abi": [
    {
      "anonymous": false,
      "inputs": [
        {
          "indexed": true,
          "internalType": "uint256",
          "name": "_trialId",
          "type": "uint256"
        }
      ],
      "name": "trialCreated",
      "type": "event"
    },
    {
      "anonymous": false,
      "inputs": [
        {
          "indexed": true,
          "internalType": "uint256",
          "name": "_userId",
          "type": "uint256"
        }
      ],
      "name": "userCreated",
      "type": "event"
    },
    {
      "inputs": [],
      "name": "trialCount",
      "outputs": [
        {
          "internalType": "uint256",
          "name": "",
          "type": "uint256"
        }
      ],
      "stateMutability": "view",
      "type": "function",
      "constant": true
    },
    {
      "inputs": [
        {
          "internalType": "uint256",
          "name": "",
          "type": "uint256"
        }
      ],
      "name": "trialList",
      "outputs": [
        {
          "internalType": "string",
          "name": "user",
          "type": "string"
        },
        {
          "internalType": "string",
          "name": "trial_discursion",
          "type": "string"
        },
        {
          "internalType": "string",
          "name": "company",
          "type": "string"
        },
        {
          "internalType": "string",
          "name": "upload_date",
          "type": "string"
        }
      ],
      "stateMutability": "view",
      "type": "function",
      "constant": true
    },
    {
      "inputs": [],
      "name": "userCount",
      "outputs": [
        {
          "internalType": "uint256",
          "name": "",
          "type": "uint256"
        }
      ],
      "stateMutability": "view",
      "type": "function",
      "constant": true
    },
    {
      "inputs": [
        {
          "internalType": "uint256",
          "name": "",
          "type": "uint256"
        }
      ],
      "name": "userList",
      "outputs": [
        {
          "internalType": "string",
          "name": "username",
          "type": "string"
        },
        {
          "internalType": "string",
          "name": "password",
          "type": "string"
        },
        {
          "internalType": "string",
          "name": "phone",
          "type": "string"
        },
        {
          "internalType": "string",
          "name": "email",
          "type": "string"
        },
        {
          "internalType": "string",
          "name": "home_address",
          "type": "string"
        }
      ],
      "stateMutability": "view",
      "type": "function",
      "constant": true
    },
    {
      "inputs": [
        {
          "internalType": "string",
          "name": "uname",
          "type": "string"
        },
        {
          "internalType": "string",
          "name": "pass",
          "type": "string"
        },
        {
          "internalType": "string",
          "name": "phone",
          "type": "string"
        },
        {
          "internalType": "string",
          "name": "em",
          "type": "string"
        },
        {
          "internalType": "string",
          "name": "ha",
          "type": "string"
        }
      ],
      "name": "saveUser",
      "outputs": [],
      "stateMutability": "nonpayable",
      "type": "function"
    },
    {
      "inputs": [],
      "name": "getUserCount",
      "outputs": [
        {
          "internalType": "uint256",
          "name": "",
          "type": "uint256"
        }
      ],
      "stateMutability": "view",
      "type": "function",
      "constant": true
    },
    {
      "inputs": [
        {
          "internalType": "string",
          "name": "usr",
          "type": "string"
        },
        {
          "internalType": "string",
          "name": "td",
          "type": "string"
        },
        {
          "internalType": "string",
          "name": "cname",
          "type": "string"
        },
        {
          "internalType": "string",
          "name": "udate",
          "type": "string"
        }
      ],
      "name": "saveTrial",
      "outputs": [],
      "stateMutability": "nonpayable",
      "type": "function"
    },
    {
      "inputs": [],
      "name": "getTrialCount",
      "outputs": [
        {
          "internalType": "uint256",
          "name": "",
          "type": "uint256"
        }
      ],
      "stateMutability": "view",
      "type": "function",
      "constant": true
    },
    {
      "inputs": [
        {
          "internalType": "uint256",
          "name": "i",
          "type": "uint256"
        }
      ],
      "name": "getUsername",
      "outputs": [
        {
          "internalType": "string",
          "name": "",
          "type": "string"
        }
      ],
      "stateMutability": "view",
      "type": "function",
      "constant": true
    },
    {
      "inputs": [
        {
          "internalType": "uint256",
          "name": "i",
          "type": "uint256"
        }
      ],
      "name": "getPassword",
      "outputs": [
        {
          "internalType": "string",
          "name": "",
          "type": "string"
        }
      ],
      "stateMutability": "view",
      "type": "function",
      "constant": true
    },
    {
      "inputs": [
        {
          "internalType": "uint256",
          "name": "i",
          "type": "uint256"
        }
      ],
      "name": "getPhone",
      "outputs": [
        {
          "internalType": "string",
          "name": "",
          "type": "string"
        }
      ],
      "stateMutability": "view",
      "type": "function",
      "constant": true
    },
    {
      "inputs": [
        {
          "internalType": "uint256",
          "name": "i",
          "type": "uint256"
        }
      ],
      "name": "getEmail",
      "outputs": [
        {
          "internalType": "string",
          "name": "",
          "type": "string"
        }
      ],
      "stateMutability": "view",
      "type": "function",
      "constant": true
    },
    {
      "inputs": [
        {
          "internalType": "uint256",
          "name": "i",
          "type": "uint256"
        }
      ],
      "name": "getHomeAddress",
      "outputs": [
        {
          "internalType": "string",
          "name": "",
          "type": "string"
        }
      ],
      "stateMutability": "view",
      "type": "function",
      "constant": true
    },
    {
      "inputs": [
        {
          "internalType": "uint256",
          "name": "i",
          "type": "uint256"
        }
      ],
      "name": "getUser",
      "outputs": [
        {
          "internalType": "string",
          "name": "",
          "type": "string"
        }
      ],
      "stateMutability": "view",
      "type": "function",
      "constant": true
    },
    {
      "inputs": [
        {
          "internalType": "uint256",
          "name": "i",
          "type": "uint256"
        }
      ],
      "name": "getDiscursion",
      "outputs": [
        {
          "internalType": "string",
          "name": "",
          "type": "string"
        }
      ],
      "stateMutability": "view",
      "type": "function",
      "constant": true
    },
    {
      "inputs": [
        {
          "internalType": "uint256",
          "name": "i",
          "type": "uint256"
        }
      ],
      "name": "getCompany",
      "outputs": [
        {
          "internalType": "string",
          "name": "",
          "type": "string"
        }
      ],
      "stateMutability": "view",
      "type": "function",
      "constant": true
    },
    {
      "inputs": [
        {
          "internalType": "uint256",
          "name": "i",
          "type": "uint256"
        }
      ],
      "name": "getDate",
      "outputs": [
        {
          "internalType": "string",
          "name": "",
          "type": "string"
        }
      ],
      "stateMutability": "view",
      "type": "function",
      "constant": true
    }
  ],
  "bytecode": "0x608060405260008055600060025534801561001957600080fd5b5061253a806100296000396000f3fe608060405234801561001057600080fd5b5060043610610128576000357c0100000000000000000000000000000000000000000000000000000000900480639f4216e8116100bf578063d4c22c4e1161008e578063d4c22c4e14610235578063e9a6f34614610248578063f18d18cc1461025b578063f38c6bb61461026e578063f561836b1461028157600080fd5b80639f4216e8146101e1578063ad804a0914610205578063b0467deb1461021a578063b5cb15f71461022d57600080fd5b80632e7d44b5116100fb5780632e7d44b51461018557806357d139171461019857806395b87591146101ab578063972fe8bc146101ce57600080fd5b806307973ccf1461012d5780630fd273de146101495780631de5686a146101695780632b57298b14610172575b600080fd5b61013660005481565b6040519081526020015b60405180910390f35b61015c6101573660046120ee565b610289565b6040516101409190612154565b61013660025481565b61015c6101803660046120ee565b6104ff565b61015c6101933660046120ee565b610775565b61015c6101a63660046120ee565b610a7d565b6101be6101b93660046120ee565b610c65565b604051610140949392919061216e565b61015c6101dc3660046120ee565b610ead565b6101f46101ef3660046120ee565b611127565b6040516101409594939291906121c6565b6102186102133660046122ef565b6113fd565b005b61015c6102283660046120ee565b6114e1565b600054610136565b61015c6102433660046120ee565b611755565b61021861025636600461239c565b611a5d565b61015c6102693660046120ee565b611b61565b61015c61027c3660046120ee565b611ddb565b600254610136565b60606000600360008481526020019081526020016000206040518060800160405290816000820180546102bb9061246e565b80601f01602080910402602001604051908101604052809291908181526020018280546102e79061246e565b80156103345780601f1061030957610100808354040283529160200191610334565b820191906000526020600020905b81548152906001019060200180831161031757829003601f168201915b5050505050815260200160018201805461034d9061246e565b80601f01602080910402602001604051908101604052809291908181526020018280546103799061246e565b80156103c65780601f1061039b576101008083540402835291602001916103c6565b820191906000526020600020905b8154815290600101906020018083116103a957829003601f168201915b505050505081526020016002820180546103df9061246e565b80601f016020809104026020016040519081016040528092919081815260200182805461040b9061246e565b80156104585780601f1061042d57610100808354040283529160200191610458565b820191906000526020600020905b81548152906001019060200180831161043b57829003601f168201915b505050505081526020016003820180546104719061246e565b80601f016020809104026020016040519081016040528092919081815260200182805461049d9061246e565b80156104ea5780601f106104bf576101008083540402835291602001916104ea565b820191906000526020600020905b8154815290600101906020018083116104cd57829003601f168201915b50505091909252505050602001519392505050565b60606000600360008481526020019081526020016000206040518060800160405290816000820180546105319061246e565b80601f016020809104026020016040519081016040528092919081815260200182805461055d9061246e565b80156105aa5780601f1061057f576101008083540402835291602001916105aa565b820191906000526020600020905b81548152906001019060200180831161058d57829003601f168201915b505050505081526020016001820180546105c39061246e565b80601f01602080910402602001604051908101604052809291908181526020018280546105ef9061246e565b801561063c5780601f106106115761010080835404028352916020019161063c565b820191906000526020600020905b81548152906001019060200180831161061f57829003601f168201915b505050505081526020016002820180546106559061246e565b80601f01602080910402602001604051908101604052809291908181526020018280546106819061246e565b80156106ce5780601f106106a3576101008083540402835291602001916106ce565b820191906000526020600020905b8154815290600101906020018083116106b157829003601f168201915b505050505081526020016003820180546106e79061246e565b80601f01602080910402602001604051908101604052809291908181526020018280546107139061246e565b80156107605780601f1061073557610100808354040283529160200191610760565b820191906000526020600020905b81548152906001019060200180831161074357829003601f168201915b50505091909252505050606001519392505050565b60606000600160008481526020019081526020016000206040518060a00160405290816000820180546107a79061246e565b80601f01602080910402602001604051908101604052809291908181526020018280546107d39061246e565b80156108205780601f106107f557610100808354040283529160200191610820565b820191906000526020600020905b81548152906001019060200180831161080357829003601f168201915b505050505081526020016001820180546108399061246e565b80601f01602080910402602001604051908101604052809291908181526020018280546108659061246e565b80156108b25780601f10610887576101008083540402835291602001916108b2565b820191906000526020600020905b81548152906001019060200180831161089557829003601f168201915b505050505081526020016002820180546108cb9061246e565b80601f01602080910402602001604051908101604052809291908181526020018280546108f79061246e565b80156109445780601f1061091957610100808354040283529160200191610944565b820191906000526020600020905b81548152906001019060200180831161092757829003601f168201915b5050505050815260200160038201805461095d9061246e565b80601f01602080910402602001604051908101604052809291908181526020018280546109899061246e565b80156109d65780601f106109ab576101008083540402835291602001916109d6565b820191906000526020600020905b8154815290600101906020018083116109b957829003601f168201915b505050505081526020016004820180546109ef9061246e565b80601f0160208091040260200160405190810160405280929190818152602001828054610a1b9061246e565b8015610a685780601f10610a3d57610100808354040283529160200191610a68565b820191906000526020600020905b815481529060010190602001808311610a4b57829003601f168201915b50505091909252505050604001519392505050565b6060600060036000848152602001908152602001600020604051806080016040529081600082018054610aaf9061246e565b80601f0160208091040260200160405190810160405280929190818152602001828054610adb9061246e565b8015610b285780601f10610afd57610100808354040283529160200191610b28565b820191906000526020600020905b815481529060010190602001808311610b0b57829003601f168201915b50505050508152602001600182018054610b419061246e565b80601f0160208091040260200160405190810160405280929190818152602001828054610b6d9061246e565b8015610bba5780601f10610b8f57610100808354040283529160200191610bba565b820191906000526020600020905b815481529060010190602001808311610b9d57829003601f168201915b50505050508152602001600282018054610bd39061246e565b80601f0160208091040260200160405190810160405280929190818152602001828054610bff9061246e565b8015610c4c5780601f10610c2157610100808354040283529160200191610c4c565b820191906000526020600020905b815481529060010190602001808311610c2f57829003601f168201915b505050505081526020016003820180546109ef9061246e565b600360205260009081526040902080548190610c809061246e565b80601f0160208091040260200160405190810160405280929190818152602001828054610cac9061246e565b8015610cf95780601f10610cce57610100808354040283529160200191610cf9565b820191906000526020600020905b815481529060010190602001808311610cdc57829003601f168201915b505050505090806001018054610d0e9061246e565b80601f0160208091040260200160405190810160405280929190818152602001828054610d3a9061246e565b8015610d875780601f10610d5c57610100808354040283529160200191610d87565b820191906000526020600020905b815481529060010190602001808311610d6a57829003601f168201915b505050505090806002018054610d9c9061246e565b80601f0160208091040260200160405190810160405280929190818152602001828054610dc89061246e565b8015610e155780601f10610dea57610100808354040283529160200191610e15565b820191906000526020600020905b815481529060010190602001808311610df857829003601f168201915b505050505090806003018054610e2a9061246e565b80601f0160208091040260200160405190810160405280929190818152602001828054610e569061246e565b8015610ea35780601f10610e7857610100808354040283529160200191610ea3565b820191906000526020600020905b815481529060010190602001808311610e8657829003601f168201915b5050505050905084565b60606000600160008481526020019081526020016000206040518060a0016040529081600082018054610edf9061246e565b80601f0160208091040260200160405190810160405280929190818152602001828054610f0b9061246e565b8015610f585780601f10610f2d57610100808354040283529160200191610f58565b820191906000526020600020905b815481529060010190602001808311610f3b57829003601f168201915b50505050508152602001600182018054610f719061246e565b80601f0160208091040260200160405190810160405280929190818152602001828054610f9d9061246e565b8015610fea5780601f10610fbf57610100808354040283529160200191610fea565b820191906000526020600020905b815481529060010190602001808311610fcd57829003601f168201915b505050505081526020016002820180546110039061246e565b80601f016020809104026020016040519081016040528092919081815260200182805461102f9061246e565b801561107c5780601f106110515761010080835404028352916020019161107c565b820191906000526020600020905b81548152906001019060200180831161105f57829003601f168201915b505050505081526020016003820180546110959061246e565b80601f01602080910402602001604051908101604052809291908181526020018280546110c19061246e565b801561110e5780601f106110e35761010080835404028352916020019161110e565b820191906000526020600020905b8154815290600101906020018083116110f157829003601f168201915b505050505081526020016004820180546106e79061246e565b6001602052600090815260409020805481906111429061246e565b80601f016020809104026020016040519081016040528092919081815260200182805461116e9061246e565b80156111bb5780601f10611190576101008083540402835291602001916111bb565b820191906000526020600020905b81548152906001019060200180831161119e57829003601f168201915b5050505050908060010180546111d09061246e565b80601f01602080910402602001604051908101604052809291908181526020018280546111fc9061246e565b80156112495780601f1061121e57610100808354040283529160200191611249565b820191906000526020600020905b81548152906001019060200180831161122c57829003601f168201915b50505050509080600201805461125e9061246e565b80601f016020809104026020016040519081016040528092919081815260200182805461128a9061246e565b80156112d75780601f106112ac576101008083540402835291602001916112d7565b820191906000526020600020905b8154815290600101906020018083116112ba57829003601f168201915b5050505050908060030180546112ec9061246e565b80601f01602080910402602001604051908101604052809291908181526020018280546113189061246e565b80156113655780601f1061133a57610100808354040283529160200191611365565b820191906000526020600020905b81548152906001019060200180831161134857829003601f168201915b50505050509080600401805461137a9061246e565b80601f01602080910402602001604051908101604052809291908181526020018280546113a69061246e565b80156113f35780601f106113c8576101008083540402835291602001916113f3565b820191906000526020600020905b8154815290600101906020018083116113d657829003601f168201915b5050505050905085565b604080516080810182528581526020808201869052818301859052606082018490526002546000908152600382529290922081518051929391926114449284920190612055565b50602082810151805161145d9260018501920190612055565b5060408201518051611479916002840191602090910190612055565b5060608201518051611495916003840191602090910190612055565b50506002546040519091507f784a978d7d0ef2cfc49c91f82a35b4debc9ce70fe2dd3aa65a0e74a7b65579ea90600090a2600280549060006114d6836124c2565b919050555050505050565b60606000600360008481526020019081526020016000206040518060800160405290816000820180546115139061246e565b80601f016020809104026020016040519081016040528092919081815260200182805461153f9061246e565b801561158c5780601f106115615761010080835404028352916020019161158c565b820191906000526020600020905b81548152906001019060200180831161156f57829003601f168201915b505050505081526020016001820180546115a59061246e565b80601f01602080910402602001604051908101604052809291908181526020018280546115d19061246e565b801561161e5780601f106115f35761010080835404028352916020019161161e565b820191906000526020600020905b81548152906001019060200180831161160157829003601f168201915b505050505081526020016002820180546116379061246e565b80601f01602080910402602001604051908101604052809291908181526020018280546116639061246e565b80156116b05780601f10611685576101008083540402835291602001916116b0565b820191906000526020600020905b81548152906001019060200180831161169357829003601f168201915b505050505081526020016003820180546116c99061246e565b80601f01602080910402602001604051908101604052809291908181526020018280546116f59061246e565b80156117425780601f1061171757610100808354040283529160200191611742565b820191906000526020600020905b81548152906001019060200180831161172557829003601f168201915b5050509190925250509051949350505050565b60606000600160008481526020019081526020016000206040518060a00160405290816000820180546117879061246e565b80601f01602080910402602001604051908101604052809291908181526020018280546117b39061246e565b80156118005780601f106117d557610100808354040283529160200191611800565b820191906000526020600020905b8154815290600101906020018083116117e357829003601f168201915b505050505081526020016001820180546118199061246e565b80601f01602080910402602001604051908101604052809291908181526020018280546118459061246e565b80156118925780601f1061186757610100808354040283529160200191611892565b820191906000526020600020905b81548152906001019060200180831161187557829003601f168201915b505050505081526020016002820180546118ab9061246e565b80601f01602080910402602001604051908101604052809291908181526020018280546118d79061246e565b80156119245780601f106118f957610100808354040283529160200191611924565b820191906000526020600020905b81548152906001019060200180831161190757829003601f168201915b5050505050815260200160038201805461193d9061246e565b80601f01602080910402602001604051908101604052809291908181526020018280546119699061246e565b80156119b65780601f1061198b576101008083540402835291602001916119b6565b820191906000526020600020905b81548152906001019060200180831161199957829003601f168201915b505050505081526020016004820180546119cf9061246e565b80601f01602080910402602001604051908101604052809291908181526020018280546119fb9061246e565b8015611a485780601f10611a1d57610100808354040283529160200191611a48565b820191906000526020600020905b815481529060010190602001808311611a2b57829003601f168201915b50505091909252505050608001519392505050565b6040805160a0810182528681526020808201879052818301869052606082018590526080820184905260008054815260018252929092208151805192939192611aa99284920190612055565b506020828101518051611ac29260018501920190612055565b5060408201518051611ade916002840191602090910190612055565b5060608201518051611afa916003840191602090910190612055565b5060808201518051611b16916004840191602090910190612055565b5050600080546040519092507f1ed675bb725b3a8b0434b9ee956fe05e4c0e79f9dc67c3f1a717a5bb1fd88fd39190a2600080549080611b55836124c2565b91905055505050505050565b60606000600160008481526020019081526020016000206040518060a0016040529081600082018054611b939061246e565b80601f0160208091040260200160405190810160405280929190818152602001828054611bbf9061246e565b8015611c0c5780601f10611be157610100808354040283529160200191611c0c565b820191906000526020600020905b815481529060010190602001808311611bef57829003601f168201915b50505050508152602001600182018054611c259061246e565b80601f0160208091040260200160405190810160405280929190818152602001828054611c519061246e565b8015611c9e5780601f10611c7357610100808354040283529160200191611c9e565b820191906000526020600020905b815481529060010190602001808311611c8157829003601f168201915b50505050508152602001600282018054611cb79061246e565b80601f0160208091040260200160405190810160405280929190818152602001828054611ce39061246e565b8015611d305780601f10611d0557610100808354040283529160200191611d30565b820191906000526020600020905b815481529060010190602001808311611d1357829003601f168201915b50505050508152602001600382018054611d499061246e565b80601f0160208091040260200160405190810160405280929190818152602001828054611d759061246e565b8015611dc25780601f10611d9757610100808354040283529160200191611dc2565b820191906000526020600020905b815481529060010190602001808311611da557829003601f168201915b505050505081526020016004820180546116c99061246e565b60606000600160008481526020019081526020016000206040518060a0016040529081600082018054611e0d9061246e565b80601f0160208091040260200160405190810160405280929190818152602001828054611e399061246e565b8015611e865780601f10611e5b57610100808354040283529160200191611e86565b820191906000526020600020905b815481529060010190602001808311611e6957829003601f168201915b50505050508152602001600182018054611e9f9061246e565b80601f0160208091040260200160405190810160405280929190818152602001828054611ecb9061246e565b8015611f185780601f10611eed57610100808354040283529160200191611f18565b820191906000526020600020905b815481529060010190602001808311611efb57829003601f168201915b50505050508152602001600282018054611f319061246e565b80601f0160208091040260200160405190810160405280929190818152602001828054611f5d9061246e565b8015611faa5780601f10611f7f57610100808354040283529160200191611faa565b820191906000526020600020905b815481529060010190602001808311611f8d57829003601f168201915b50505050508152602001600382018054611fc39061246e565b80601f0160208091040260200160405190810160405280929190818152602001828054611fef9061246e565b801561203c5780601f106120115761010080835404028352916020019161203c565b820191906000526020600020905b81548152906001019060200180831161201f57829003601f168201915b505050505081526020016004820180546104719061246e565b8280546120619061246e565b90600052602060002090601f01602090048101928261208357600085556120c9565b82601f1061209c57805160ff19168380011785556120c9565b828001600101855582156120c9579182015b828111156120c95782518255916020019190600101906120ae565b506120d59291506120d9565b5090565b5b808211156120d557600081556001016120da565b60006020828403121561210057600080fd5b5035919050565b6000815180845260005b8181101561212d57602081850181015186830182015201612111565b8181111561213f576000602083870101525b50601f01601f19169290920160200192915050565b6020815260006121676020830184612107565b9392505050565b6080815260006121816080830187612107565b82810360208401526121938187612107565b905082810360408401526121a78186612107565b905082810360608401526121bb8185612107565b979650505050505050565b60a0815260006121d960a0830188612107565b82810360208401526121eb8188612107565b905082810360408401526121ff8187612107565b905082810360608401526122138186612107565b905082810360808401526122278185612107565b98975050505050505050565b7f4e487b7100000000000000000000000000000000000000000000000000000000600052604160045260246000fd5b600082601f83011261227357600080fd5b813567ffffffffffffffff8082111561228e5761228e612233565b604051601f8301601f19908116603f011681019082821181831017156122b6576122b6612233565b816040528381528660208588010111156122cf57600080fd5b836020870160208301376000602085830101528094505050505092915050565b6000806000806080858703121561230557600080fd5b843567ffffffffffffffff8082111561231d57600080fd5b61232988838901612262565b9550602087013591508082111561233f57600080fd5b61234b88838901612262565b9450604087013591508082111561236157600080fd5b61236d88838901612262565b9350606087013591508082111561238357600080fd5b5061239087828801612262565b91505092959194509250565b600080600080600060a086880312156123b457600080fd5b853567ffffffffffffffff808211156123cc57600080fd5b6123d889838a01612262565b965060208801359150808211156123ee57600080fd5b6123fa89838a01612262565b9550604088013591508082111561241057600080fd5b61241c89838a01612262565b9450606088013591508082111561243257600080fd5b61243e89838a01612262565b9350608088013591508082111561245457600080fd5b5061246188828901612262565b9150509295509295909350565b60028104600182168061248257607f821691505b602082108114156124bc577f4e487b7100000000000000000000000000000000000000000000000000000000600052602260045260246000fd5b50919050565b60006000198214156124fd577f4e487b7100000000000000000000000000000000000000000000000000000000600052601160045260246000fd5b506001019056fea264697066735822122022429df516e62754b6a4e53cacb56dd342224e660f283f10a9b74900ea19cb4d64736f6c634300080b0033",
  "immutableReferences": {},
  "source": "pragma solidity >= 0.8.11 <= 0.8.11;\r\npragma experimental ABIEncoderV2;\r\n//Drug solidity code\r\ncontract Drug {\r\n\r\n    uint public userCount = 0; \r\n    mapping(uint => user) public userList; \r\n     struct user\r\n     {\r\n       string username;\r\n       string password;\r\n       string phone;\r\n       string email;\r\n       string home_address;\r\n     }\r\n     \r\n   // events \r\n   event userCreated(uint indexed _userId);\r\n   \r\n   //function  to save user details to Blockchain\r\n   function saveUser(string memory uname, string memory pass, string memory phone, string memory em, string memory ha) public {\r\n      userList[userCount] = user(uname, pass, phone, em, ha);\r\n      emit userCreated(userCount);\r\n      userCount++;\r\n    }\r\n\r\n     //get user count\r\n    function getUserCount()  public view returns (uint) {\r\n          return  userCount;\r\n    }\r\n\r\n    uint public trialCount = 0; \r\n    mapping(uint => trial) public trialList; \r\n     struct trial\r\n     {\r\n       string user;\r\n       string trial_discursion;\r\n       string company;\r\n       string upload_date;       \r\n     }\r\n \r\n   // events \r\n   event trialCreated(uint indexed _trialId);\r\n   \r\n   //function  to save trial details to Blockchain\r\n   function saveTrial(string memory usr, string memory td, string memory cname, string memory udate) public {\r\n      trialList[trialCount] = trial(usr, td, cname, udate);\r\n      emit trialCreated(trialCount);\r\n      trialCount++;\r\n    }\r\n\r\n   //get trial count\r\n    function getTrialCount()  public view returns (uint) {\r\n          return  trialCount;\r\n    }\r\n\r\n    function getUsername(uint i) public view returns (string memory) {\r\n        user memory doc = userList[i];\r\n\treturn doc.username;\r\n    }\r\n\r\n    function getPassword(uint i) public view returns (string memory) {\r\n        user memory doc = userList[i];\r\n\treturn doc.password;\r\n    }\r\n\r\n    function getPhone(uint i) public view returns (string memory) {\r\n        user memory doc = userList[i];\r\n\treturn doc.phone;\r\n    }    \r\n\r\n    function getEmail(uint i) public view returns (string memory) {\r\n        user memory doc = userList[i];\r\n\treturn doc.email;\r\n    }      \r\n\r\n    function getHomeAddress(uint i) public view returns (string memory) {\r\n        user memory doc = userList[i];\r\n\treturn doc.home_address;\r\n    }\r\n\r\n    function getUser(uint i) public view returns (string memory) {\r\n        trial memory doc = trialList[i];\r\n\treturn doc.user;\r\n    }\r\n\r\n    function getDiscursion(uint i) public view returns (string memory) {\r\n        trial memory doc = trialList[i];\r\n\treturn doc.trial_discursion;\r\n    }\r\n\r\n    function getCompany(uint i) public view returns (string memory) {\r\n        trial memory doc = trialList[i];\r\n\treturn doc.company;\r\n    }\r\n\r\n    function getDate(uint i) public view returns (string memory) {\r\n        trial memory doc = trialList[i];\r\n\treturn doc.upload_date;\r\n    }   \r\n       \r\n}",
  "sourcePath": "C:\\Users\\Admin\\Desktop\\Blockchain\\hello-eth\\node_modules\\.bin\\contracts\\Drug.sol",
  "compiler": {
    "name": "solc",
    "version": "0.8.11+commit.d7f03943.Emscripten.clang"
  },
  "schemaVersion": "3.4.4",
  "updatedAt": "2025-02-25T07:17:57.775Z",
  "networkType": "ethereum",
  "devdoc": {
    "kind": "dev",
    "methods": {},
    "version": 1
  },
  "userdoc": {
    "kind": "user",
    "methods": {},
    "version": 1
  }
}